:020000040800F2
:1000000018160020350200082D260008912500084A
:1000100029260008911B00084B2F00080000000053
:10002000000000000000000000000000AD280008F3
:10003000391D000800000000B5260008C12900088D
:100040004B0200084B0200084B0200084B0200085C
:100050004B0200084B0200084B0200084B0200084C
:100060004B0200084B0200084B0200084B0200083C
:100070004B0200084B0200084B0200084B0200082C
:100080004B0200084B0200084B0200084B0200081C
:100090004B0200084B0200084B0200084B0200080C
:1000A0004B0200084B0200084B0200084B020008FC
:1000B000252A00084B0200084B0200084B020008EA
:1000C0004B0200084B0200084B0200084B020008DC
:1000D0004B020008FD2B00084B020008852C00088D
:1000E0004B0200084B0200084B02000800F002F827
:1000F00000F090F80AA090E8000C82448344AAF132
:100100000107DA4501D100F085F8AFF2090EBAE82F
:100110000F0013F0010F18BFFB1A43F0010318473B
:100120005435000074350000103A24BF78C878C1F7
:10013000FAD8520724BF30C830C144BF04680C60ED
:10014000704700000023002400250026103A28BF35
:1001500078C1FBD8520728BF30C148BF0B60704739
:100160006E2900F0CC82702900F04386662903F0E6
:100170004C81652903F04981672903F04681612993
:10018000AFF3008003681B0A28BF41F08001692992
:1001900000F0CC80642900F0C980752900F0C68089
:1001A0006F2900F0D185782900F00F86E92900F049
:1001B0006B85E42900F06885F52900F06585EF2955
:1001C00000F0CE85F82900F00E860368DB0928BF11
:1001D00041F08001632900F0DA84732900F0DF84A4
:1001E000E32900F0CD86F32900F0D2860020704785
:1001F0001FB500F031FE04000020002103F064F878
:10020000401C60600020002103F048F8E0601FBD42
:1002100010B510BD00F056FF1146FFF7E9FF02F0E0
:100220002FFF00F07DFF03B4FFF7F2FF03BC02F0E5
:10023000A9FE000008480047FEE7FEE7FEE7FEE7EC
:10024000FEE7FEE7FEE7FEE7FEE7FEE703480449B8
:10025000044A054B70470000ED000008181000200C
:1002600018160020181200201812002070470000F5
:100270001CB50C46064B7B4469460090204600F0B6
:1002800064FC04460020694600F072FC20461CBD58
:10029000F70800000FB4044910B503AA029800F053
:1002A00083FC10BC5DF814FB2C0000200FB41CB5BF
:1002B000084B06AA7B4469460090059800F045FC6F
:1002C00004460020694600F053FC20461CBC5DF843
:1002D00014FB0000B908000070B50C460546012A61
:1002E00005D02878800600D5EA69002302E00123C2
:1002F00005E05B1C934202D2E05C0028F9D1A869BA
:10030000E618C01AA861286A18442862284600F036
:1003100064F904E0D5E9012114F8010B9047B442D7
:10032000F8D3284600F06FF970BD00002DE9F041C8
:100330000646002410687529314616A510D000F035
:1003400073F9002802DA404213A507E031688A07F2
:1003500001D512A502E0490704D511A5012401E049
:1003600000F06BF900210A2206F1240709E0B0FB36
:10037000F2FCB0FBF2F302FB1C003030785418465C
:10038000491C0028F3D123462A463046BDE8F041F7
:1003900000F05CB9000000002D0000002B00000000
:1003A000200000002DE9F05F894604464FF0000A66
:1003B000DFF874B1FB44C0F820A02046E16888470C
:1003C000002874D0252806D0D4E901219047206A5E
:1003D000401C2062F1E700265F462046E16888471E
:1003E0002028054607DB312D05D2781910F8200C9E
:1003F00008B10643F1E7B00701D526F00406C4F8BA
:100400001CA00027C4F818A02A2D09D0284602F005
:10041000B2FD38B304EB8708303DC8F8185019E036
:1004200059F8041B204604EB87029161E168884774
:10043000012F054618D1E069002820DA26F02006B1
:100440001DE0D8F8180000EB800005EB40003038C4
:10045000C8F818002046E1688847054602F08BFD81
:100460000028EED1012F0AD02E2D08D12046E168B8
:1004700088477F1C0546022F46F02006C4DBA06992
:10048000002803DA404246F00106A061F00701D0DF
:1004900026F010066C2D0BD0682D09D04C2D39D0CC
:1004A0006A2D35D0742D35D07A2D33D016E038E052
:1004B000E1682F4620468847B842054609D16C2F8F
:1004C00026D04FF48060E168064320468847054601
:1004D00004E06C2F1AD04FF4807006430DB3A5F1E1
:1004E0004100192802D8203546F400664A462946BC
:1004F000204626604E46FFF733FE80B101280BD020
:10050000F61D26F0070000F1080956E74020E4E751
:100510008020D8E70020D6E706F104094DE72846F9
:1005200052E7206ABDE8F09F5630000030B505461E
:100530000B462A4613F8014B12F8010B08B1A042F2
:10054000F8D01CB1002802D06D1CF1E7284630BD60
:1005500010B5431C02E010F8011B71B18107FAD1FC
:100560004FF0013202C88C1A8C4314EAC211F9D040
:10057000C01A0A0603D0C01E10BDC01A10BD0A045E
:1005800001D0801E10BD0902FCD0401E10BD4FF0EE
:1005900000020429C0F0128010F0030C00F0368431
:1005A000CCF1040CBCF1020F18BF00F8012BA8BF5E
:1005B00020F8022BA1EB0C0100F028BC5FEAC17C03
:1005C00024BF00F8012B00F8012B48BF00F8012BD5
:1005D0007047704770477047704770B5044685692B
:1005E0000068C10601D5302600E02026C00707D0EC
:1005F00070BDD4E9012130469047206A401C20623A
:100600006D1EF6D570BD70B5044685690078C007CB
:1006100007D170BDD4E9012120209047206A401CF9
:1006200020626D1EF6D570BD09684A0501D540B23D
:100630007047C905FCD500B2704709684A0501D565
:10064000C0B27047C905FCD580B270472DE9F047AC
:100650000D4699469246044600F124080168880632
:1006600004D5E06921F01001216000E00120A842DA
:1006700001DD471B00E00027A1697A1902EB0900A0
:10068000081AA0612078C00602D42046FFF7A5FF13
:10069000002608E0D4E901211AF806009047206AF4
:1006A000401C761C20624E45F4DB2078C0060AD53B
:1006B0002046FFF792FF06E0D4E901213020904761
:1006C000206A401C2062381EA7F10107F4DC07E015
:1006D000D4E9012118F805009047206A401C2062E7
:1006E000281EA5F10105F3DC2046FFF78CFF2078DA
:1006F000000602D50220BDE8F0870120FBE7116863
:100700000268006A530501D508700AE0D30501D5D7
:10071000088006E0130603D5C217C1E9000200E015
:1007200008600120704770472DE9FF4F0C461E46B8
:100730004FF0FF378BB0D2E90001DDF860800A90FE
:100740008A46C1F30A5505B93D46002108464FF0D7
:100750000000BAF1000F00F4400005DA00EB800061
:100760004FF4400101EA50004FEA9059B9F1010FEE
:1007700000DDB9460A9850EA4A000ED044F61050FF
:10078000A5F2FF3545432F14B8F1000F1ED0754276
:10079000291E1EDDC9F100021CE0B8F1010F4FF067
:1007A000000001D0302103E0F24305E02154401C59
:1007B000B042FBDB30460022002121540B99C1F8E6
:1007C0000880C1E900200FB0BDE8F08FBD1B6D1C93
:1007D000DEE74A4600DA694206A800F0DDFB06AB18
:1007E00093E8070003AB83E8070050460A9900F03E
:1007F000DDFC8DE80700A0F500501F38009003983D
:10080000002D09DD42F21F014A46084403A9039066
:10081000684600F03CFF08E0A0F500504A461F384B
:1008200003A90390684600F046FF8DE80700000426
:10083000000C03D04FF0FF30410800E01046B8F143
:10084000000F03D00022009215461EE0751E05D44D
:1008500000F006FB303262556D1EF9D5B346012219
:10086000084302D000227F1C04E02078302801D108
:1008700000227F1E002A099786D01DE0112D07DA7D
:1008800000F0EEFA303262556D1C50EA0102F5D1EB
:10089000084302D00098C8B10EE00021681E05E0B0
:1008A000235C625C63542254401E491C8142F7DB86
:1008B000AB46A81B401E0990002004F80B000B98C3
:1008C000099AC0F80880C0E9002B7CE711264FF098
:1008D000000859E72DE9F04F88460446D21D22F062
:1008E000070191B0D1E90001CDE90A0102F02FFB27
:1008F00002460B98C00F01D02D2007E02068810729
:1009000001D52B2002E0202101EAC000032A099032
:1009100001D0072A05DB03464146204600F0E6FAEF
:100920000BE12078800601D5E06900E00620B8F1EF
:10093000650F814606D0B8F1660F18D0B8F1670F81
:1009400070D131E00020B9F1110F009001DB1123CB
:1009500001E009F101030AAA01A90CA8FFF7E4FECE
:10096000DDE90C70002609F10105834647E001200E
:100970004B4600904FF000470AAA01A90CA8FFF7C8
:10098000D3FEDDE90DB00C995D46002610B909F1E2
:1009900001000D18B9EB050003D4C0F1FF3609F1D1
:1009A0000105A5EB09002BE0B9F1010F01DA4FF0C9
:1009B00001090020B9F1110F0090484601DD112313
:1009C00000E003460AAA01A90CA8FFF7ADFEDDE985
:1009D0000C704D4600268346207800070AD4AB45AC
:1009E00000DA5D4601A8012D04DD411911F8011C52
:1009F000302907D04F4502DA17F1040F04DA01203D
:100A000082460FE06D1EEEE7002F02DCED1B3E4438
:100A100003E0781CA84200DD7D1CB81B00F1010A30
:100A20004FF000472078000703D4AA4501DB4FF0C0
:100A3000FF3A0021B7F1004F0DF143088DF8431044
:100A400024D002202B23002F01DA7F422D230A21FC
:100A5000021EA0F1010000DC5FB197FBF1FC97FBE7
:100A6000F1F201FB1C7C17460CF1300C08F801CDAB
:100A7000EEE7A8F1010003702188090501D54521A1
:100A800000E06521A0F1010800F8011C09980FA9F8
:100A9000A1EB0807FF1D00B10120411901EBEA702D
:100AA000A1693844081A401EA0612078C00602D40B
:100AB0002046FFF792FD099828B1D4E9012190471B
:100AC000206A401C20622078C00622D52046FFF70D
:100AD00084FD1EE0002E04DBB34502DD01A8805D2D
:100AE00000E03020D4E901219047206A401C2062B8
:100AF000761CAAF101005FEA000A0AD100F0ACF905
:100B0000C0680168405CD4E901219047206A401C1C
:100B10002062281EA5F10105DCDC07E0D4E90121F3
:100B200018F8010B9047206A401C2062381EA7F17C
:100B30000107F3DC2046FFF766FD032011B043E612
:100B400001694A1C02610878704700B58FB0CDE991
:100B500001310021059105497944CDE90310114681
:100B60006846FFF71FFC0FB000BD0000E5FFFFFF68
:100B70000A6802F8010B0A60704710B5436913B1A7
:100B8000AFF3008001E0FFF7A7FB012010BD127852
:100B900000F124010A7000224A700122EDE7116879
:100BA0004FF0FF32E9E70000074B70B50D467B447C
:100BB000FFF7CBFF0446284600F05CFA10B14FF077
:100BC000FF3070BD204670BDB32400002DE9FF5FEB
:100BD00015468A460446DFF8AC80F8440027D8E979
:100BE00000103E46CDE9001010E03AF816106A46B3
:100BF00002A800F043FA411C07D02178890603D5EA
:100C0000E269391891420DD80744761C2078800695
:100C100002D5E069B84205DDAE42E6DB3AF81600DF
:100C20000028E2D1A069C01BA0612046FFF7D5FCD7
:100C3000D8E90010CDE90010002017E03AF81810AC
:100C40006A4602A800F01AFAB0F1FF3F81460BD0C5
:100C500000250DF1080B05E0D4E901211BF8050082
:100C600090476D1C4D45F7D308F10100B042804616
:100C7000E4DB206A384420622046FFF7C4FCBDE86C
:100C8000FF9F0000422800002DE9F0418046D21D60
:100C900022F007020025D2E90002F52915A614D09A
:100CA000011E72F1000106DA0023D0EB030063EBB2
:100CB000020211A608E0D8F800108B0701D50FA694
:100CC00002E0490701D50EA601251146002408F1CE
:100CD000240704E000F0C4F830323A55641C50EAAE
:100CE0000102F7D12B46324621464046BDE8F0418D
:100CF000FFF7ACBC000000002D0000002B0000003E
:100D00002000000030B4002100F1240408E002F0CB
:100D10000705D208303542EA4372DB086554491CA6
:100D200052EA0305F3D10468002310A2250708D571
:100D300004F020040C4304D0C46901230CA2641EF7
:100D4000C46130BCFFF782BC10B504462146106870
:100D5000FFF773FC02462046BDE810400023D1E7B0
:100D6000D21D22F00701D1E90023CBE700000000EB
:100D700030000000F0B40D460188090502D5214C71
:100D80007C4402E01F4C7C440E34002100F1240618
:100D900008E002F00F071209E75D42EA03721B093F
:100DA0007754491C52EA0307F3D102780023120753
:100DB00004D5702D06D009B1022311342246F0BCAF
:100DC000FFF744BC01231034F8E770B504460D4624
:100DD00021461068FFF731FC024629462046BDE84F
:100DE00070400023C6E7D21D22F00703D3E9002399
:100DF000C0E70368126843F0200303600823C3615F
:100E00000023B7E7A42600004FF0000200B5134608
:100E100094469646203922BFA0E80C50A0E80C501A
:100E2000B1F12001BFF4F7AF090728BFA0E80C50CB
:100E300048BF0CC05DF804EB890028BF40F8042BC4
:100E400008BF704748BF20F8022B11F0804F18BF31
:100E500000F8012B7047000000487047D40F0020B5
:100E600030B5B0F10A024FEA900E71F100034EEA7C
:100E7000817EB0EB0E0061EB91014FEA101E4EEA4D
:100E8000017E10EB0E0041EB11114FEA102E4EEADD
:100E9000016E10EB0E0041EB11214FEA104E4EEAAD
:100EA000014E10EB0E0041EB1141401841F10001E1
:100EB0004FEAD00040EA41704FEAD10110EB8005C3
:100EC0004FEA810444EA907444EB01046D1944EB49
:100ED0000404521BA3414FF0000348BF0A3200D55F
:100EE00030BD401C41F1000130BD00002DE9F04152
:100EF0001F46044603260168072A01F4006004DB4C
:100F000008B116A505E016A503E008B115A500E097
:100F100015A521F010002060A069C01EA0610FB1CE
:100F2000401EA0612046FFF758FB4FB1D4E90121D4
:100F300038469047206A401C2062C01C206206E0B0
:100F4000206AFAE7D4E9012115F8010B9047761ED3
:100F5000F8D22046FFF757FBBDE8F0814E414E0026
:100F60006E616E00494E4600696E660010B54369B9
:100F700013B1AFF3008001E0FFF728FE012010BDA0
:100F8000128800F1240182840022C2840122EDE74C
:100F900011684FF0FF32E9E72DE9F0478146164628
:100FA0008AB0334878440DC88DE80D003048784445
:100FB000801C03AC0DC884E80D0041F69B3008444A
:100FC000372190FBF1F290FBF1F5A5F1800501FBD3
:100FD00012041B3C02D56442012000E00020DFF82F
:100FE00090A080460027FA44AAF1BE0A0DE0E0076F
:100FF00009D03246684607EB47010AEB810100F051
:101000005AFB8DE8070064107F1C002CEFD1184FAD
:101010007F44AC3F18E0E80714D007EB04100DF153
:10102000180A90E80E008AE80E00C068F04201D16C
:1010300098190890324606A903A800F03CFB03ABC0
:1010400083E807006D10641C002DE4D13246694628
:10105000B8F1000F03A802D000F019FB01E000F086
:101060002AFBC9E90001C9F808200AB0BDE8F087E9
:1010700024250000007B00F08000704770B5164604
:101080000C46054600F044F8036893F80101012876
:1010900006D0FF2C0FD8185D68B101202C7070BDF0
:1010A000D3F807013246214603F2071303442846CA
:1010B000BDE8704018474FF0FF3070BD00487047E2
:1010C000B40F00207546FFF7F9FFAE4605006946EC
:1010D000534620F00700854618B020B5FFF7B6F854
:1010E000BDE820404FF000064FF000074FF0000829
:1010F0004FF0000B21F00701AC46ACE8C009ACE8AA
:10110000C009ACE8C009ACE8C0098D4670470000D2
:1011100010B5FFF7A1FE001D10BD00BFAD210000FE
:101120000446AFF300802046FFF77DF84FF0013C06
:1011300050F8042B51F8043B9A4221D1A2EB0C0346
:10114000934313EACC1317D150F8042B51F8043B06
:101150009A4215D1A2EB0C03934313EACC130BD1A3
:1011600050F8042B51F8043B9A4209D1A2EB0C032E
:10117000934313EACC13DBD04FF00000704700BF5D
:10118000D01A01BAB1FA81F101F0180122FA01F086
:10119000CB40C1F12001DBB2C0B2C01A2CFA01F37E
:1011A000D11A914311EAC311E6D170475FEA400CAE
:1011B00008BF91F0000F4FEA8C234FEAC12243EAA7
:1011C00051514FEA1C5018BF00F5F0404FEA300073
:1011D00018BF41F000415FEA6C5C00F02980BCF16F
:1011E000FF3F08BF40F080407047130C06BF120459
:1011F0004FF0100C4FF0000C130E04BF12020CF154
:10120000080C130F04BF12010CF1040C930F04BF60
:1012100092000CF1020CD30F04BF52000CF1010C30
:1012200011464FF00002A0F11F00A0EB0C00704728
:1012300011F0004F08BF704731F000413FF4D5AFC7
:101240000B0C06BF09044FF0100C4FF0000C0B0EF6
:1012500004BF09020CF1080C0B0F04BF09010CF1CB
:10126000040C8B0F04BF89000CF1020CCB0F04BFE0
:1012700049000CF1010CCCF12003A0EB0C0022FA88
:1012800003F302FA0CF241EA030100F10100704796
:1012900020F07F4C80EA030023F07F47ACEB07038C
:1012A00003F57C5300F0004003F1FF032DE9804972
:1012B0004FEA154B09B44FEA144325EA0B4E24EAD2
:1012C00003480FF2042606EB132749083E785FEA2D
:1012D000320203FB0667C7F5000707FB06F64FEA75
:1012E00054374FEAD64606F1020607FB066CCCF1EE
:1012F000005C4FEA1C472CEA074C07FB06F40CFB8A
:1013000006F504EB15464FEA961634BF00204FF061
:1013100000404FEAD13706FB07FC4FEA1C4C0CFBA0
:101320000BF7D21B03FB0CF761EB07010CFB0EF76D
:10133000B0EB074072EB17420CFB08F734BFA2EB8F
:101340000742B2EB074261EB17414FEA0C444FEA08
:10135000910706FB07FC4FEA1C4C0CFB0BF7B0EBAC
:10136000C74072EB573203FB0CF734BFA2EBC74206
:10137000B2EBC74261EB57310CFB0EF7B0EBC70085
:1013800072EB57720CFB08F734BFA2EBC702B2EB4B
:10139000C70261EB5771039F4FEA816141EA9211E5
:1013A00004EBCC044FEAD1374FEA826206FB07FC1C
:1013B00042EA90124FEA80604FEA1C4C0CFB0BF79C
:1013C000D21B03FB0CF761EB07010CFB0EF7B0EB34
:1013D000074072EB17420CFB08F734BFA2EB074241
:1013E000B2EB074261EB17414FEA8C554FEA910788
:1013F00004EB9C2406FB07FC4FEA1C4C0CFB0BF790
:10140000B0EBC74072EB573203FB0CF734BFA2EBD3
:10141000C742B2EBC74261EB57310CFB0EF7B0EBA2
:10142000C70072EB57720CFB08F734BFA2EBC70280
:10143000B2EBC70261EB577115EB4C254FEA8161A6
:1014400041EA92114FEA82624FEAD13742EA9012A2
:1014500006FB07FC44F100044FEA80604FEA1C4C95
:101460000CFB0BF7D21B03FB0CF761EB07010CFB2A
:101470000EF7B0EB074072EB17420CFB08F734BFD6
:10148000A2EB0742B2EB074261EB174115EB1C15CB
:101490004FEA813141EA92414FEA823242EA904278
:1014A0004FEA80304FEA0C7644F1000448EA0343E7
:1014B0004EEA0B484FF0000EB2EB080C71EB03073D
:1014C00024BF624639464EEB0E0E4FF0000B00185B
:1014D000524149414BEB0B0BB2EB080C71EB03078C
:1014E0007BF1000B24BF624639464EEB0E0E4FF0E7
:1014F000000B0018524149414BEB0B0BB2EB080CAF
:1015000071EB03077BF1000B24BF624639464EEBBB
:101510000E0E51EA020718BF46F0010616EB0E76D2
:1015200055F1000254F1000103D5BDE88901BDE881
:101530000088BDE88901BDE80048B619524141EB79
:101540000101A3F10103704780807F7E7D7C7B7A5F
:101550007978777676757473727171706F6E6E6D5F
:101560006C6C6B6A6A696868676666656464636305
:1015700062616160605F5F5E5E5D5D5C5C5B5B5A8B
:101580005A595958585757565655555554545353F8
:1015900052525251515050504F4F4F4E4E4D4D4D53
:1015A0004C4C4C4B4B4B4A4A4A494949484848479E
:1015B00047474746464645454544444444434343DC
:1015C0004342424242414141002B26D4770021D080
:1015D0001CB54FEA370703B44FF010004FF010016D
:1015E0004FF000000FBCBDE810400BF1010BBBF148
:1015F000010F08BF5FEA170722BF12F1010211F1C4
:1016000001014FF0004143F1000300F0004043EAC4
:1016100000007047F9D35708DAE746EA064613F1A7
:10162000400F4FEA16461FDD13F1200FDFBF1643B0
:101630000A46002120335B42C8D0C3F1200746EAA6
:10164000064602FA07F74FEA164646EA0706C3F1CE
:10165000200722FA03F201FA07F721FA03F14FF00B
:10166000000342EA0702B1E746EA020646EA0646F6
:101670004FEA164646EA0106BCBF46EA0646360C65
:101680004FF000034FF000024FF000019EE72DE9FC
:10169000C048934630B491E8380007C831EA400C9E
:1016A00048BF34EA430C03D5FFF7F2FDFFF78CFF88
:1016B000F0BCBDE800882DE9C048934630B491E8FD
:1016C000380007C810F0804F08BF13F0804F03D1D7
:1016D00000F005F8FFF778FFF0BCBDE8008820F0C7
:1016E0007F4780EA030023F07F4C07EB0C03A3F550
:1016F0007C5300F00040A3F1FE0392F0000F00F0D5
:10170000B38095F0000F00F077802DE901494FEA92
:1017100011404FEA144621EA004800FB06FC24EA87
:10172000064708FB06F607FB08F800FB07F718EB6F
:1017300006484CEB164C4FEA124B18EB07484FEAA1
:1017400015464CEB174022EA0B4E0BFB06FC25EA34
:1017500006470EFB06F607FB0EFE0BFB07F71EEB1C
:10176000064E4CEB164C4FF000061EEB074E4CEBB2
:10177000174B18EB0B0840F1000018EB0E0B58EB61
:10178000000840F100008F1A4FF000013CBFC94330
:10179000661B14BFB5EB040C00213CBFC943F61B0C
:1017A0004FEA17444EEA8E0E27EA04454FEA1C47DB
:1017B00004FB07622CEA074C05FB07F70CFB05F658
:1017C00004FB0CFC16EB074642EB174216EB0C46EB
:1017D00042EB1C421BEB060658EB0202414146EA73
:1017E0009E0601D5BDE80189B619524141EB0101C0
:1017F000A3F10103BDE801894FEA14454FEA1147FF
:1018000024EA054621EA074C05FB07F406FB07F727
:101810000CFB06F105FB0CFC11EB074144EB1744F4
:101820004FEA124711EB0C4144EB1C4422EA074CEF
:1018300005FB07F206FB07F70CFB06F605FB0CFCA5
:1018400016EB074642EB174216EB0C4642EB1C45E3
:101850006A1854F1000148BF7047B619524141EB74
:101860000101A3F10103704795F0000F37D04FEA53
:1018700011424FEA144721EA024624EA074C02FBD0
:1018800007F106FB07F70CFB06F402FB0CFC14EB5C
:10189000074441EB17414FEA154714EB0C4441EB69
:1018A0001C4125EA074C02FB07F506FB07F70CFB7A
:1018B00006F602FB0CFC16EB074645EB174516EB4C
:1018C0000C4645EB1C42121951F1000148BF70470C
:1018D000B619524141EB0101A3F1010370474FEAF0
:1018E00014454FEA114724EA054621EA074C05FB57
:1018F00007F106FB07F70CFB06F24FF0000605FBAD
:101900000CFC12EB074241EB174112EB0C4251EB7E
:101910001C4148BF7047921841EB0101A3F101033C
:10192000704721B1826842F00102826003E0826860
:1019300022F001028260704710B5044612488442CA
:1019400008D10121401500F0F3FE0021601500F0E0
:10195000EFFE17E00D48844208D10121001500F088
:10196000E7FE0021201500F0E3FE0BE0084884426A
:1019700008D10121C80300F0DBFE00214FF4004034
:1019800000F0D6FE10BD00000024014000280140F8
:10199000003C0140014600208A6802F004020AB1BE
:1019A000012000E0002070470146C86C80B27047FB
:1019B0000246002013680B400BB1012000E000201C
:1019C0007047014600208A6802F008020AB101202F
:1019D00000E000207047000030B5024600200023E0
:1019E00050680F4C20400D790C6844EA05242043D0
:1019F000506090680B4C2040D1E902542C434D7943
:101A000044EA450420439060D06A20F470000C7CC6
:101A1000641EE4B2234340EA0350D06230BD0000AC
:101A2000FFFEF0FFFDF7F1FFF0B504460D46002084
:101A30000021092D11DDE068A5F10A0606EB460735
:101A4000072606FA07F18843A5F10A0606EB4606C3
:101A500003FA06F10843E0600CE0206905EB450756
:101A6000072606FA07F1884305EB450603FA06F157
:101A700008432061072A0FDA606B561E06EB8607C3
:101A80001F2606FA07F18843561E06EB860605FA5E
:101A900006F10843606322E00D2A0FDA206BD61F9F
:101AA00006EB86071F2606FA07F18843D61F06EBCA
:101AB000860605FA06F10843206310E0E06AA2F109
:101AC0000D0606EB86071F2606FA07F18843A2F1EA
:101AD0000D0606EB860605FA06F10843E062F0BD46
:101AE000816841F008018160704721B1826842F449
:101AF000A002826003E0826822F4A0028260704744
:101B0000816841F0040181607047000000B585B034
:101B10000121480200F0FCFD4FF4004000F0CCFD34
:101B20000121480200F004FE00214FF4007000F093
:101B3000FFFD1648FFF700FF002000908DF804001D
:101B40008DF805004FF460200290002003900120E2
:101B50008DF8100069460D48FFF73EFF01210B4844
:101B6000FFF7DFFE0948FFF7BBFF00BF0748FFF79D
:101B700028FF0028FAD10548FFF7C2FF00BF03483D
:101B8000FFF708FF0028FAD105B000BD002401408E
:101B900000BFFEE710B500241548006820F0706013
:101BA000134908600846006840F00060086004E0DF
:101BB000601CC4B2012001F02FFA0E48006808B181
:101BC000642CF5DB642C01DB012010BD002404E053
:101BD000601CC4B2012001F01FFA0648006808B971
:101BE000642CF5DB642C01DB0120EEE70020ECE740
:101BF000000801401801214208B50121042000F02D
:101C000087FD4020ADF8000010208DF80300032070
:101C10008DF802006946064800F012FC4021044895
:101C200000F099FC00F068F8FFF7B4FF08BD000071
:101C30000008014010B5002404E0601CC4B201207B
:101C400001F0EAF90D48006808B1642CF5DB0024C6
:101C500004E0601CC4B2012001F0DEF9074800680E
:101C600008B9642CF5DB282001F0D6F90348006898
:101C700008B1012010BD0020FCE70000180121423E
:101C800070B50024002506E06006040EFFF7D2FFC1
:101C90000443681CC5B2082DF6DB204670BD7CB538
:101CA00005460E4600F028F8FFF774FFF8B9002447
:101CB00005E0FFF7E5FF0DF80400601CC4B2052C39
:101CC000F7DB9DF800009DF8011008449DF8021014
:101CD00008449DF8031008449DF80410884208D178
:101CE0009DF8000030709DF80200287001E001208E
:101CF0007CBD0020FCE7000010B50C48006820F017
:101D000070600A4908600846006840F0407008604A
:101D1000002007490860142001F058F90120054906
:101D2000C1F898011E2001F077F910BD00080140AC
:101D300098012142000021427047000010B554A0D4
:101D4000FEF7A8FA5DA0FEF7A5FA00F06BFD60A013
:101D5000FEF7A0FA4FF47A7001F038F94FF47A7078
:101D600001F034F94FF47A7001F030F948A0FEF731
:101D700091FA5DA0FEF78EFA02E00A2001F026F942
:101D800064225DA15DA000F0B7FA0028F5D15EA045
:101D9000FEF780FA3EA0FEF77DFA61A0FEF77AFA20
:101DA00003E04FF47A7001F011F94FF4FA7261A177
:101DB00063A000F0A1FA0028F3D168A0FEF76AFA48
:101DC00033A0FEF767FA6BA0FEF764FA02E00A2080
:101DD00001F0FCF8642248A16BA000F08DFA002805
:101DE000F5D172A0FEF756FA29A0FEF753FA75A0B6
:101DF000FEF750FA02E00A2001F0E8F864223EA162
:101E0000754800F079FA0028F5D174A0FEF742FA7F
:101E10001FA0FEF73FFA77A0FEF73CFA02E00A2087
:101E200001F0D4F8642234A1774800F065FA002864
:101E3000F5D176A0FEF72EFA15A0FEF72BFA7AA0C0
:101E4000FEF728FA64227DA1804800F055FA38B1E7
:101E50004FF47A7001F0BAF87DA0FEF71BFA02E0A9
:101E600081A0FEF717FA0AA0FEF714FA87A0FEF782
:101E700011FA02E00A2001F0A9F864221EA18848A4
:101E800000F03AFA0028F5D186A0FEF703FA10BD5B
:101E90002323232323232323232323232323232312
:101EA0002323232323232323232323232323232302
:101EB00023232323232323230D0A00005B5265736E
:101EC000657420455350383236363A5D0D0A0000AD
:101ED0005B52657365742045535038323636204F57
:101EE0004B5D0D0A000000005B536574204D6F646C
:101EF000653A5D0D0A0000004F4B000041542B4332
:101F0000574D4F44453D31005B536574204D6F6420
:101F10006520537563636573735D0D0A00000000EF
:101F20005B5749464920474F542049503A5D0D0AB6
:101F3000000000005749464920474F5420495000AF
:101F400041542B43574A41503D22363636222C22EB
:101F50003636363639393939220000005B57494662
:101F60004920474F5420495020537563636573736C
:101F70005D0D0A005B436F6E6E6574204E545020F9
:101F80003A5D0D0A0000000041542B434950534E66
:101F900054504346473D312C382C226E7470312EFC
:101FA000616C6979756E2E636F6D22005B436F6E95
:101FB0006E6574204E545020537563636573735C73
:101FC000720A00005B5365742055534552434647DF
:101FD000203A5D0D0A000000E43400085B5365748C
:101FE00020555345524346472053756363657373C9
:101FF0005C720A005B53657420434C49454E54495A
:10200000443A5D0D0A000000443500085B536574D6
:1020100020434C49454E54494420537563636573CE
:10202000735D0D0A000000005B436F6E6E657420E7
:10203000496F54203A5D0D0A000000004D51545480
:10204000434F4E4E45435445440000002C36000893
:102050005B436F6E6E657420496F542053756363E4
:102060006573735D0D0A00005B436F6E6E657420CF
:10207000496F542041434B20436865636B204661A0
:10208000696C65645D5C720A000000005B537562F8
:1020900020546F70696320203A5D0D0A0000000033
:1020A000E83500085B53756220546F7069632053F4
:1020B0007563636573735D0D0A0000002DE9FC41D3
:1020C0004FF4C874C8213F48FEF761FA4FF4FA7123
:1020D0003D48FEF75CFA4FF47A713C48FEF757FA38
:1020E0003B48006801F00CF907468846394800680B
:1020F00001F006F905462A460B4637A13148CDE9DD
:102100000078FEF7D3F82F4B4248028842A12E48B0
:10211000FEF7CCF83F480088401C3E4908802A4A18
:1021200046492A48FEF7C2F80020454908804FF486
:1021300080614448FEF72BFA244943A000F036FDA5
:1021400035E00A2000F042FF3D48008800F40040DE
:1021500000282CD03EA13B48FEF7E8F9002818D013
:102160002C480088411E48A0FEF794F84BA0FEF7CB
:1021700091F8344957A0FEF78DF848A0FEF78AF889
:1021800000202F4908804FF480612E48FEF7FFF9A8
:1021900011E000202A4908804FF480612948FEF7A9
:1021A000F6F91C480088411E4BA0FEF773F8601E2C
:1021B00080B20400C5D100BF14B90120BDE8FC8184
:1021C0000020FBE74808002010090020040B002035
:1021D00004000020000000207B5C224C4544537723
:1021E000697463685C223A315C2C5C2254656D70C2
:1021F000657261747572655C223A252E32665C2CBC
:102200005C2248756D69646974795C223A252E32C6
:10221000667D0000260000207B5C2269645C223A17
:10222000205C2225645C225C2C5C22706172616DF2
:10223000735C223A2573207D000000009C35000865
:10224000220000204800002025730D0A0000000035
:102250002F7379732F69386A324134624A78365362
:102260002F4445563030312F7468696E672F65767C
:10227000656E742F70726F70657274792F706F73E2
:10228000745F7265706C79005075626C6973682D4B
:1022900028256429204F4B0D0A0000002D2D2D2DDF
:1022A0002D2D2D2D2D2D2D2D2D2D2D2D2D2D2D2D5E
:1022B0002D2D2D2D2D2D2D2D2D2D2D2D2D2D2D2D4E
:1022C0002D2D2D2D2D2D2D2D2D2D2D2D2D2D0D0A81
:1022D00000000000257300003E5075626C69736851
:1022E0002D28256429204661696C65642C2052657F
:1022F0007472790D0A00000070B505460E4614464A
:1023000000202B4908804FF480612A48FEF73FF9EE
:10231000294629A000F04AFC012000F057FE002EBB
:1023200044D0002C42D039E00A2000F04FFE204873
:10233000008800F40040002830D031461D48FEF7E8
:10234000F5F8002815D01EA0FDF7A4FF21A0FDF789
:10235000A1FF184918A0FDF79DFF1EA0FDF79AFFE9
:102360000020134908804FF480611248FEF70FF9EE
:1023700018E023A0FDF78EFF28A0FDF78BFF0D4985
:102380000DA0FDF787FF25A0FDF784FF0020084979
:1023900008804FF480610748FEF7F9F8601E80B2AC
:1023A0000400C1D100BF0CB9012070BD0020FCE7C2
:1023B000220000204800002025730D0A00000000C4
:1023C000434D442041434B20436865636B204F4B92
:1023D0000D0A00002D2D2D2D2D2D2D2D2D2D2D2DCA
:1023E0002D2D2D2D2D2D2D2D2D2D2D2D2D2D2D2D1D
:1023F0002D2D2D2D2D2D2D2D2D2D2D2D0D0A0000AA
:102400003E434D442041434B20436865636B204667
:1024100061696C65643A0D0A000000003E2A2A2AB0
:102420002A2A2A2A2A2A2A2A2A2A2A2A2A2A2A2A0C
:102430002A2A2A2A2A2A2A2A2A2A2A0D0A000000B7
:102440002DE9F0410246002500260020002300244B
:10245000002791F803C00CF00F0591F803C00CF0B1
:10246000100CBCF1000F03D091F802C04CEA050536
:1024700091F800C0BCF1000F31D0146800202BE0AF
:102480004FF0010C0CFA00F3B1F800C00CEA03069F
:102490009E4220D183004FF00F0C0CFA03F7BC438F
:1024A00005FA03FC4CEA040491F803C0BCF1280FC0
:1024B00006D14FF0010C0CFA00FCC2F814C00AE07F
:1024C00091F803C0BCF1480F05D14FF0010C0CFA94
:1024D00000FCC2F810C0401C0828D1D31460B1F829
:1024E00000C0BCF1FF0F34DD546800202EE000F185
:1024F000080C4FF0010808FA0CF3B1F800C00CEA20
:1025000003069E4221D183004FF00F0C0CFA03F713
:10251000BC4305FA03FC4CEA040491F803C0BCF187
:10252000280F05D100F1080C08FA0CF8C2F8148045
:1025300091F803C0BCF1480F07D100F1080C4FF02F
:10254000010808FA0CF8C2F81080401C0828CED305
:102550005460BDE8F08101617047000010B5044689
:102560000723012221460948FFF75EFA01210748A7
:10257000FFF7BBFA00BF02210448FFF719FA002851
:10258000F9D00248FFF710FA10BD00000024014006
:1025900000BFFEE708B50121102000F0B9F84FF4A4
:1025A0000050ADF8000010208DF8030003208DF8D6
:1025B000020069460448FFF743FF4FF40051024808
:1025C000FFF7C9FF08BD00000010014070B50024EE
:1025D000002508E00120FFF7C1FF0444052000F0BA
:1025E000F5FC681CC5B2052DF4DB0520B4FBF0F446
:1025F000B4F57A6F01D94FF47A64E0B270BD00008F
:1026000008B50121042000F083F80220ADF8000095
:1026100000208DF8030069460248FFF711FFFFF71D
:1026200075FA08BD0008014000BFFEE770470000D2
:1026300070B5002100230F22C47804B3154C246820
:1026400004F4E064C4F5E064210AC1F10403CA4063
:10265000447804FA03F184781440214309010E4CB4
:102660000678A155047804F01F050124AC400578D4
:102670006D11AD0005F1E025C5F8004109E00478D1
:1026800004F01F050124AC40044D0678761145F88E
:10269000264070BD0CED00E000E400E080E100E0C9
:1026A00002490143024A1160704700000000FA0528
:1026B0000CED00E07047000001460020034A50681E
:1026C00020F4404008435060704700000010024072
:1026D00029B1064AD2690243044BDA6104E0034A95
:1026E000D2698243014BDA6170470000001002405A
:1026F00029B1064A12690243044B1A6104E0034AF5
:1027000012698243014B1A617047000000100240B9
:1027100029B1064A92690243044B9A6104E0034AD4
:1027200092698243014B9A61704700000010024099
:1027300029B1064AD2680243044BDA6004E0034A36
:10274000D2688243014BDA607047000000100240FB
:1027500030B500210022002400232D4D6D6805F0C6
:102760000C0121B1042905D0082923D105E0294D08
:10277000056022E0274D05601FE0254D6D6805F4DA
:102780007012234D6D6805F48034022505EB9242EA
:102790001CB9214D554305600BE01D4D6D6805F4D6
:1027A00000351DB11C4D5543056002E0194D5543E0
:1027B000056002E0174D056000BF00BF144D6D6855
:1027C00005F0F0010909154D6B5C0568DD404560B9
:1027D0000F4D6D6805F4E061090A104D6B5C4568AA
:1027E000DD4085600A4D6D6805F46051C90A0B4DE6
:1027F0006B5C4568DD40C560054D6D6805F4404182
:10280000890B074D6B5CC568B5FBF3F5056130BD01
:102810000010024000127A0000093D003200002042
:102820004200002008B501210820FFF771FF202099
:10283000ADF8000010208DF8030003208DF8020091
:1028400069461548FFF7FCFD0020144908604FF465
:102850007A7000F0BBFB01201149C1F894014FF4DC
:102860007A7000F0B3FB4FF47A7000F0AFFB4FF4D6
:102870007A7000F0ABFB4FF47A7000F0A7FB4FF4D6
:102880007A7000F0A3FB0020064908804FF48061B5
:102890000548FDF77CFE08BD000C014094812142F3
:1028A000008021422200002048000020704710B51F
:1028B00000F002F810BD00000CB50020019000905F
:1028C0003348006840F480303149086000BF304828
:1028D000006800F4003000900198401C01900098BE
:1028E00018B90198B0F5A06FF1D12948006800F43B
:1028F000003010B10120009001E00020009000980D
:10290000012843D12348006840F0100021490860A5
:102910000846006820F0030008600846006840F0A0
:10292000020008601A484068194948600846406833
:1029300048600846406840F4806048600846406847
:1029400020F47C1048600846406840F4E810486075
:102950000846006840F08070086000BF0C480068BE
:1029600000F000700028F9D00948406820F003000A
:10297000074948600846406840F00200486000BFD0
:102980000348406800F00C000828F9D10CBD000095
:102990000010024000200240042808D14FF0E0213E
:1029A000096941F004014FF0E022116107E04FF0A6
:1029B000E021096921F004014FF0E0221161704724
:1029C0007047000010B51348006840F0010011493D
:1029D000086008464068104908400E4948600846AB
:1029E00000680E4908400B4908600846006820F45A
:1029F000802008600846406820F4FE0048604FF4DC
:102A00001F008860FFF753FF4FF000600449086023
:102A100010BD0000001002400000FFF8FFFFF6FEAE
:102A200008ED00E010B50121880700F050F870B102
:102A30000748008840F400400549088001218807C4
:102A400000F036F800214FF0804000F034F810BD5F
:102A5000220000207FB505460C4601210846FFF7FD
:102A600037FEADF80450ADF800400020ADF8060088
:102A7000ADF8020069464FF0804000F045F80122B1
:102A80001146900700F034F80121880700F013F890
:102A90001C208DF80C0003208DF80D0002208DF80D
:102AA0000E0001208DF80F0003A8FFF7C1FD7FBDC8
:102AB000CA430282704721B1028842F001020280BB
:102AC00004E002884FF6FE731A400280704730B56A
:102AD0000246002000230024158A05EA0103958997
:102AE00005EA010413B10CB1012000E0002030BD63
:102AF0001AB183890B43838102E083898B438381ED
:102B00007047818470470000002202881D4B984264
:102B10000ED01D4B98420BD0B0F1804F08D01B4B0C
:102B2000984205D01A4B984202D01A4B984204D1D1
:102B30004FF68F731A404B881A43174B984207D0B1
:102B4000164B984204D04FF6FF431A40CB881A43E5
:102B500002808B8883850B8803850A4B98420BD0B3
:102B6000094B984208D00E4B984205D00D4B984225
:102B700002D00D4B984201D10B7A03860123838248
:102B800070470000002C0140003401400004004068
:102B900000080040000C00400010004000140040FD
:102BA0000040014000440140004801400FB438B5E6
:102BB00005A800900F48009A0499FDF759FB0020E2
:102BC00000900C48FDF7C4FC85B200240DE000BF66
:102BD0004021094800F0E8F80028F9D00548015DD7
:102BE000054800F0AEF9601C84B2AC42EFDB38BCA3
:102BF0005DF814FB480400200048004010B540F286
:102C000025511D4800F0DDF810B31B4800F094F981
:102C1000C4B21A48008800F40040C8B917480088B8
:102C200000F4804060B10A2C03D0002013490880D2
:102C300020E01248008840F400401049088019E064
:102C40000D2C06D10D48008840F480400B490880C7
:102C500010E00A480088C0F30D0009490C540748E9
:102C60000088401C0549088008460088C72801DD07
:102C70000020088010BD0000003801403000002016
:102C8000EC0E002010B5002440F22551164800F04B
:102C900098F800B3144800F04FF9C4B21348008804
:102CA00000F40040B8B911480088B0F5806F13DA1D
:102CB00000214FF08040FFF724FF0C48008818B92E
:102CC00001218807FFF7F7FE08490888411C074AD9
:102CD000118007490C5405E00448008840F4004086
:102CE0000249088010BD000000480040220000207A
:102CF0004800002021B1828942F40052828104E020
:102D000082894DF6FF731A408281704710B50446E0
:102D10002048844209D101218803FFF709FD0021E1
:102D20004FF48040FFF704FD32E01B48844209D194
:102D300001214804FFF7DCFC00214FF40030FFF7CD
:102D4000D7FC25E01548844209D101218804FFF70A
:102D5000CFFC00214FF48020FFF7CAFC18E0104898
:102D6000844209D10121C804FFF7C2FC00214FF4BD
:102D70000020FFF7BDFC0BE00A48844208D1012186
:102D80000805FFF7B5FC00214FF48010FFF7B0FCF9
:102D900010BD0000003801400044004000480040E1
:102DA000004C00400050004002460020B1F5007F7A
:102DB00000D100BF13880B400BB1012000E00020C0
:102DC000704770B50246002400230025002040F61D
:102DD0006A16B14200D100BFC1F3421501F01F03D2
:102DE000012606FA03F3012D02D19689334006E04D
:102DF000022D02D1168A334001E0968A33400C122C
:102E0000012606FA04F41688344013B10CB10120EF
:102E100000E0002070BDF0B5034600240026002528
:102E2000002040F66A17B94200D100BF1846C1F32E
:102E3000421401F01F06012707FA06F5012C01D103
:102E40000C3004E0022C01D1103000E014301AB133
:102E500007682F43076002E00768AF430760F0BDD3
:102E60002DE9F04786B005460E460024A24600BF75
:102E7000A1460027B08900B100BF2F462C8A4CF62E
:102E8000FF700440F08804432C82AC894EF6F310A6
:102E90000440B08831890843718908430443AC81F8
:102EA000AC8A4FF6FF400440B0890443AC8201A8CD
:102EB000FFF74EFC1F48874202D1DDF810A001E069
:102EC000DDF80CA0A88900F4004040B10AEBCA006C
:102ED00000EB0A1031684900B0FBF1F807E00AEB9B
:102EE000CA0000EB0A1031688900B0FBF1F86420D9
:102EF000B8FBF0F004012009642101FB1089A889C6
:102F000000F4004040B1322000EBC900B0FBF1F00A
:102F100000F00700044308E0322000EB09106421B0
:102F2000B0FBF1F000F00F0004432C8106B0BDE8C7
:102F3000F08700000038014001468888C0F308008F
:102F40007047C1F308028280704700BFFEE7490066
:102F500050EAC12018BF04204A0D18BF40F00100FC
:102F600040F2FF72B2EB515F08BF40F0020001284F
:102F700008BF0520704730380A2801D20120704769
:102F80000020704700BF704710B56FF00400FFF7D6
:102F900003FD0A4800680A49B0FBF1F009490870CE
:102FA0000846007800EB4001C1EBC0104FF6FF71FE
:102FB00001EAC0000449088010BD00000C00002098
:102FC00000127A00280000202A0000200146114A41
:102FD00012884A434FF0E0235A6100229A611A4650
:102FE000126942F001021A6100BF4FF0E02210693D
:102FF00000F001021AB100F48032002AF5D04FF03F
:10300000E022126922F001024FF0E0231A6100224F
:103010009A6170472A0000200146114A12784A43FB
:103020004FF0E0235A6100229A611A46126942F079
:1030300001021A6100BF4FF0E022106900F00102A6
:103040001AB100F48032002AF5D04FF0E022126964
:1030500022F001024FF0E0231A6100229A617047CA
:103060002800002000BF054A128802F04002002A12
:10307000F9D0C2B2014B1B1D1A80704700380140C5
:103080001CB5002001900090FFF79CFC4FF4A0605D
:10309000FFF706FBFFF778FF4FF4165000F0AEF88D
:1030A0004FF4E13000F042F8FFF774FAFEF7A4FDA8
:1030B000FFF7A6FA16A0FDF7EDF8FEF73FFE4FF476
:1030C0007A70FFF783FF21E0694601A8FEF7E7FD6C
:1030D0009DF8040000F040F9114908609DF80000D7
:1030E00000F03AF90F490860FFF770FA0E490870CE
:1030F000FEF7E4FF4FF47A70FFF768FF4FF47A7041
:10310000FFF764FF4FF47A70FFF760FFDCE7000021
:10311000496E697420455350383236360D0A000026
:1031200000000020040000200800002010B586B038
:10313000044601210820FFF7EBFA01218804FFF77C
:10314000C7FA2B48FFF7E2FD4FF48060ADF814009A
:1031500003208DF8160018208DF8170005A92548C2
:10316000FFF76EF94FF40060ADF8140004208DF8FD
:10317000170005A91F48FFF763F901940020ADF877
:103180000800ADF80A00ADF80C00ADF810000C20F6
:10319000ADF80E0027208DF8000002208DF8010008
:1031A00003208DF8020001208DF803006846FFF728
:1031B0003FFA01A90E48FFF753FE012240F22551C4
:1031C0000B48FFF728FE01210948FFF793FD41F660
:1031D0001F4140F2E730FFF73DFC00200649088020
:1031E00000214FF08040FFF766FC06B010BD0000E4
:1031F00000480040000C01402200002010B586B0BD
:103200000446012144F20400FFF782FA4FF40070F3
:10321000ADF8140003208DF8160018208DF8170063
:1032200005A91C48FFF70CF94FF48060ADF81400B5
:1032300004208DF8170005A91648FFF701F925208D
:103240008DF8000003208DF801008DF802000120A8
:103250008DF803006846FFF7EBF901940020ADF804
:103260000800ADF80A00ADF80C00ADF810000C2015
:10327000ADF80E0001A90848FFF7F2FD012240F267
:1032800025510548FFF7C7FD01210348FFF732FD2F
:1032900006B010BD000801400038014010B50029FB
:1032A0000AD00878002807D005487844FDF73EFF8B
:1032B000002801D0002010BD0248784410BD000055
:1032C000EA030000E203000010B500290AD00878E4
:1032D000002807D005487844FDF728FF002801D0D2
:1032E000002010BD0248784410BD0000DA03000041
:1032F000D20300000808A0F500114FEA3101704721
:1033000043004FEAD30C4FEA3C0C43401FBF400739
:103310000CF1605113F0FE4F70471CF0006F03D1A9
:1033200000200CF0004170470CF0004343EA50705D
:1033300010B540EACC0000F022F800BF0000009277
:103340004FEA0001FFF7D6BF4FF000414FF00000F9
:10335000A1F5002170470000B0FA80F310FA03F2E3
:10336000C3F19D030AD0D90501EB1220530638BFE3
:10337000704700F1010008BF20F0010070470EF116
:10338000020E2EF0030E5EF8044B244204D44FEAE2
:103390004102B2F17F4F11D84FEA4003B3F17F4FA2
:1033A0000CD80ED14FEAD07CB2F17F4F0CEB4C0C15
:1033B0000CF1020C08BF4CEBD17C04E04FF0080C80
:1033C00001E04FEAD17C0CEB4C0324FA03F404F047
:1033D0000704B4F1040C06D20EEB840CBDE81040D7
:1033E0004CF0010C6047DFE80CF0070802024FF0D8
:1033F0000040A0F5800010BD0846420018BFD2F181
:10340000807288BF00F0004010BDFDF763BA040071
:103410000008000000000000000200010000100091
:103420000000000000000000303132333435363700
:1034300038394142434445464030580030313233F8
:1034400034353637383961626364656640307800F8
:1034500002400000000000A0000000000540000045
:10346000000000C8000000000C4000000000409C6C
:1034700000000000194000000020BCBE0000000059
:1034800034400000BFC91B8E00000004B54000009E
:10349000504BCFD06607E2CF010000006C41000026
:1034A0003E8251AADFEEA73401000000D94200009D
:1034B000DCB5A0E23A301F97FFFFFFFFB4450000E4
:1034C000FD25A0C8E9A3C14FFFFFFFFFFF3F00009C
:1034D0000000008000000000FF3F000000000080AE
:1034E0000000000041542B4D515454555345524354
:1034F00046473D302C312C22222C22444556303078
:10350000312669386A324134624A783653222C2295
:103510004633373443304231363146333341464502
:1035200042383741423638343441353534453944F0
:103530004538334130453543222C302C302C222263
:103540000000000041542B4D515454434C49454E0A
:103550005449443D302C2231323334357C73656319
:103560007572656D6F64653D335C2C7369676E6D54
:103570006574686F643D686D6163736861315C2C6C
:1035800074696D657374616D703D313639323237EF
:10359000383739353731317C2200000041542B4D0A
:1035A0005154545055423D302C222F7379732F695A
:1035B000386A324134624A7836532F4445563030A7
:1035C000312F7468696E672F6576656E742F70721F
:1035D0006F70657274792F706F7374222C2225734B
:1035E000222C312C3000000041542B4D51545453A7
:1035F00055423D302C222F7379732F69386A32413E
:1036000034624A7836532F4445563030312F74682F
:10361000696E672F6576656E742F70726F70657254
:1036200074792F706F7374222C31000041542B4D2C
:10363000515454434F4E4E3D302C2269386A32412A
:1036400034624A7836532E696F742D61732D6D7113
:1036500074742E636E2D7368616E676861692E6184
:103660006C6979756E63732E636F6D222C313838F7
:10367000332C3100C0370008000000204800000053
:10368000280100080838000848000020D015000074
:10369000440100081C00000043000000F8FFFFFF89
:1036A0000C0000000E0000000F0000002E000000C3
:1036B0001001000043000000F8FFFFFF0040404001
:1036C00040404040404041414141414040404040F5
:1036D00040404040404040404040404040050202A1
:1036E0000202020202020202020202020220202060
:1036F00020202020202020020202020202029090BC
:1037000090909090101010101010101010101010B9
:10371000101010101010101002020202020288880D
:103720008888888808080808080808080808080819
:103730000808080808080808020202024000000001
:103740000000000000000000000000000000000079
:103750000000000000000000000000000000000069
:103760000000000000000000000000000000000059
:103770000000000000000000000000000000000049
:103780000000000000000000000000000000000039
:103790000000000000000000000000000000000029
:1037A0000000000000000000000000000000000019
:1037B0000000000000000000000000000000000009
:1037C000C3F5A83FB81EC53F0000000000A24A0490
:1037D00000000000000000000102030406070809C1
:1037E00000000000000000000000000000000000D9
:1037F00000000000000001020304010203040607A8
:0838000008090204060800009B
:0400000508000235B8
:00000001FF
